:10C0000000000320750E1700532C1200772C12002D
:10C010008F2C1200DB3C12002B46120000000000A7
:10C02000000000000000000000000000653D12005C
:10C03000DB4C1200000000000D3D120051161200F2
:10C040001D881700258817002D88170035881700D0
:10C050003D881700458817004D8817005588170040
:10C060005D881700658817006D88170075881700B0
:10C070007D881700858817008D8817009588170020
:10C080009D881700C1891700C1891700C189170051
:10C09000C1891700C1891700C1891700C18917001C
:10C0A000A5881700AD881700B5881700BD88170050
:10C0B000C5881700CD881700C1891700695812007C
:10C0C000D5881700474D1200DD881700E588170056
:10C0D000ED881700031E1100F5881700C1891700AD
:10C0E000C1891700C1891700C1891700C1891700CC
:10C0F000C1891700C1891700C1891700C1891700BC
:10C10000C1891700C1891700C1891700C1891700AB
:10C11000C1891700C1891700C1891700C18917009B
:10C12000C1891700C1891700C1891700C18917008B
:10C13000C1891700C1891700C1891700C18917007B
:10C14000C1891700FD8817006F4E1200058917007E
:10C15000C1891700C1891700C1891700C18917005B
:10C16000C1891700C18917000D89170015891700AB
:10C170001D891700258917002D891700358917009B
:10C180003D891700458917004D89170025C2160003
:10C190007DC21600C5C2160055891700C189170057
:10C1A000C1891700C1891700C18917005D8917006F
:10C1B000C1891700C1891700658917006D891700AB
:10C1C000758917007D891700858917008D891700EB
:10C1D000C1891700C1891700C1891700C1891700DB
:10C1E000C1891700C1891700C1891700C1891700CB
:10C1F000C1891700C1891700C1891700C1891700BB
:10C20000C1891700C1891700C1891700C1891700AA
:10C3F000C1891700C1891700C1891700FFFFFFFF1E
:10C40000FFFFFFFFFFFFFFFFFFFFFFFFFEFFFFFF3D
:10C4100014C50E00010E0000002D00000000010EEA
:10C420000000002D000000012E023C00000054001E
:10C4300000000B6465736B746F702E696E690190F8
:10C440000000006208000003777777005B4C6F63A1
:10C45000616C697A656446696C654E616D65735D92
:10C460000D0A436F6D6D616E642050726F6D707454
:10C470002E6C6E6B3D402553797374656D526F6FF2
:10C4800074255C73797374656D33325C7368656CA5
:10C490006C33322E646C6C2C2D32323032320D0AF9
:10C4A000019000000062080000012E010E00000053
:10C4B0002D000000022E2E01F40800002C000000C8
:10C4C000072E7673636F646502180B00001C0D0065
:10C4D0000024416C61726D5F47726F75705F4469D3
:10C4E000676974616C5F496E7075745F416C6172ED
:10C4F0006D2E68746D6C0234180000FD1200001E71
:10C50000416C61726D5F47726F75705F47656E65F4
:10C5100072616C5F416C61726D2E68746D6C023477
:10C520002B0000120900001E416C61726D5F4772A2
:10C530006F75705F486973746F72795F416C617277
:10C540006D2E68746D6C0248340000A00300000A70
:10C55000636F6C6F72732E63737301E8370000BFF3
:10C560000000000363737301C88E00005C000000CC
:10C5700006696D6167657302FCA60000EC1400009B
:10C580000A496E6465782E68746D6C01E8BB000022
:10C5900034050000026A7302F0B0060026070000AE
:10C5A0000A6C6F67696E2E68746D6C0118B80600AE
:10C5B0004F0000000B6C6F67696E5F66696C657396
:10C5C00002E43C0B007609000026506172616D6543
:10C5D000746572735F4D6F6E69746F725F41435F14
:10C5E000496E666F726D6174696F6E2E68746D6CE2
:10C5F000025C460B008E0B000027506172616D6576
:10C60000746572735F4D6F6E69746F725F415453DE
:10C610005F496E666F726D6174696F6E2E68746DBE
:10C620006C02EC510B00841100002B506172616DA3
:10C6300065746572735F4D6F6E69746F725F42618E
:10C6400074746572795F496E666F726D6174696F3B
:10C650006E2E68746D6C0270630B008E0B000027E9
:10C66000506172616D65746572735F4D6F6E697450
:10C670006F725F4254535F496E666F726D61746989
:10C680006F6E2E68746D6C02006F0B004C0B000017
:10C6900028506172616D65746572735F4D6F6E696C
:10C6A000746F725F4655454C5F496E666F726D617F
:10C6B00074696F6E2E68746D6C024C7A0B00FF11FA
:10C6C000000027506172616D65746572735F4D6F14
:10C6D0006E69746F725F47454E5F496E666F726D2B
:10C6E0006174696F6E2E68746D6C024C8C0B00B2B5
:10C6F0000E000030506172616D65746572735F4D3C
:10C700006F6E69746F725F695F53656E73655F47C3
:10C710007269645F496E666F726D6174696F6E2EC7
:10C7200068746D6C02009B0B00EF0B0000275061DA
:10C7300072616D65746572735F4D6F6E69746F724F
:10C740005F4C49425F496E666F726D6174696F6ECE
:10C750002E68746D6C02F0A60B00730F0000285059
:10C760006172616D65746572735F4D6F6E69746F30
:10C77000725F4C6F61645F496E666F726D61746960
:10C780006F6E2E68746D6C0264B60B009A0E00001A
:10C7900029506172616D65746572735F4D6F6E696A
:10C7A000746F725F504D5F44435F496E666F726D88
:10C7B0006174696F6E2E68746D6C0200C50B00D0D9
:10C7C0001D000026506172616D65746572735F4D66
:10C7D0006F6E69746F725F504D5F496E666F726DF8
:10C7E0006174696F6E2E68746D6C02D0E20B00C2CA
:10C7F0001B00002D506172616D65746572735F4D31
:10C800006F6E69746F725F52656374696669657291
:10C810005F496E666F726D6174696F6E2E68746DBC
:10C820006C0294FE0B00E714000031506172616DE0
:10C8300065746572735F4D6F6E69746F725F536F6D
:10C840006C61725F436861726765725F496E666FA3
:10C85000726D6174696F6E2E68746D6C027C130C5E
:10C8600000D212000027506172616D6574657273A9
:10C870005F4D6F6E69746F725F5641435F496E66BC
:10C880006F726D6174696F6E2E68746D6C025026E4
:10C890000C004229000026506172616D657465725A
:10C8A000735F53657475705F41676973736F6E5F13
:10C8B00053657474696E67732E68746D6C02944F5F
:10C8C0000C00561200002B506172616D6574657228
:10C8D000735F53657475705F426174746572795FDC
:10C8E0004C41424D5F53657474696E67732E687472
:10C8F0006D6C02EC610C00221600002C506172611C
:10C900006D65746572735F53657475705F426174B1
:10C91000746572795F4C69696F6E5F536574746991
:10C920006E67732E68746D6C0210780C000F4200F5
:10C93000002B506172616D65746572735F5365742D
:10C9400075705F426174746572795F546573745F6A
:10C9500053657474696E67732E68746D6C0220BAC7
:10C960000C00EB1E000022506172616D65746572EF
:10C97000735F53657475705F4254535F536574748D
:10C98000696E67732E68746D6C020CD90C00752982
:10C99000000028506172616D65746572735F536544
:10C9A0007475705F444B4435315F4244505F53654A
:10C9B0007474696E67732E68746D6C0284020D0066
:10C9C000872300002C506172616D65746572735F1E
:10C9D00053657475705F456D6572736F6E5F4D3230
:10C9E0003231535F53657474696E67732E68746D6A
:10C9F0006C020C260D00457B00002C506172616DAD
:10CA000065746572735F53657475705F456D6572AB
:10CA1000736F6E5F4D353030445F53657474696E6B
:10CA200067732E68746D6C0254A10D00C510000070
:10CA300023506172616D65746572735F53657475BF
:10CA4000705F4655454C5F53657474696E67732E0D
:10CA500068746D6C021CB20D00C112000028506198
:10CA600072616D65746572735F53657475705F474D
:10CA7000656E657261746F725F53657474696E6719
:10CA8000732E68746D6C02E0C40D000B0E00002B59
:10CA9000506172616D65746572735F536574757012
:10CAA0005F695F53656E73655F477269645F536565
:10CAB0007474696E67732E68746D6C02ECD20D002D
:10CAC000CD0D000024506172616D65746572735FF5
:10CAD00053657475705F504D5F44435F5365747464
:10CAE000696E67732E68746D6C02BCE00D00950F63
:10CAF000000021506172616D65746572735F5365EA
:10CB00007475705F504D5F53657474696E67732EF2
:10CB100068746D6C0254F00D00362A0000235061D9
:10CB200072616D65746572735F53657475705F5380
:10CB30004D43425F53657474696E67732E68746DFC
:10CB40006C028C1A0E00BB10000022506172616DE5
:10CB500065746572735F53657475705F5641435FAA
:10CB600053657474696E67732E68746D6C02482B1C
:10CB70000E00481C00002B506172616D6574657277
:10CB8000735F53657475705F5645525449565F4DD7
:10CB9000383330425F53657474696E67732E6874FE
:10CBA0006D6C0290470E0098230000225061726164
:10CBB0006D65746572735F53657475705F5A544523
:10CBC0005F53657474696E67732E68746D6C0228A8
:10CBD0006B0E00650C00001E5374617475735F4426
:10CBE00065766963655F496E666F726D6174696FC2
:10CBF0006E2E68746D6C0290770E00480C00002356
:10CC00005374617475735F53657269616C5F506FC3
:10CC100072745F496E666F726D6174696F6E2E68B3
:10CC2000746D6C02D8830E00D40E00001C53746126
:10CC30007475735F534E4D505F496E666F726D61D0
:10CC400074696F6E2E68746D6C02AC920E009C025B
:10CC500000000D7374796C656D61696E2E6373737A
:10CC60000248950E00950600001F53797374656D98
:10CC70005F546F6F6C735F466163746F72795F525C
:10CC8000657365742E68746D6C02E09B0E004E0A2D
:10CC900000002153797374656D5F546F6F6C735F1F
:10CCA0004669726D776172655F5570646174652E57
:10CCB00068746D6C0230A60E004F18000022537984
:10CCC0007374656D5F546F6F6C735F49505F41643F
:10CCD00064726573735F53657475702E68746D6CE0
:10CCE0000280BE0E00940600001853797374656DBF
:10CCF0005F546F6F6C735F5265626F6F742E6874F0
:10CD00006D6C000001F40800002C000000012E01F1
:10CD10009000000062080000022E2E022009000090
:10CD2000F60100000B6C61756E63682E6A736F6E9E
:10CD30007B0D0A202020202F2F2055736520496E5F
:10CD400074656C6C6953656E736520746F206C65D7
:10CD500061726E2061626F757420706F73736962A7
:10CD60006C6520617474726962757465732E0D0A46
:10CD7000202020202F2F20486F76657220746F208E
:10CD800076696577206465736372697074696F6E24
:10CD900073206F66206578697374696E67206174AB
:10CDA00074726962757465732E0D0A202020202F1D
:10CDB0002F20466F72206D6F726520696E666F72EC
:10CDC0006D6174696F6E2C2076697369743A20689E
:10CDD000747470733A2F2F676F2E6D6963726F735F
:10CDE0006F66742E636F6D2F66776C696E6B2F3F65
:10CDF0006C696E6B69643D3833303338370D0A2007
:10CE00002020202276657273696F6E223A202230CC
:10CE10002E322E30222C0D0A2020202022636F6E0D
:10CE200066696775726174696F6E73223A205B0D73
:10CE30000A202020200D0A20202020202020207BD6
:10CE40000D0A2020202020202020202020202274B5
:10CE5000797065223A20226368726F6D65222C0D0D
:10CE60000A2020202020202020202020202272653F
:10CE70007175657374223A20226C61756E63682245
:10CE80002C0D0A20202020202020202020202022BD
:10CE90006E616D65223A20224C61756E6368204395
:10CEA00068726F6D6520616761696E7374206C6F65
:10CEB00063616C686F7374222C0D0A20202020207F
:10CEC000202020202020202275726C223A20226807
:10CED0007474703A2F2F3139322E3136382E312E6C
:10CEE0003130222C0D0A202020202020202020203C
:10CEF000202022776562526F6F74223A2022247BB1
:10CF0000776F726B7370616365466F6C6465727D79
:10CF1000220D0A20202020202020207D0D0A202004
:10CF200020205D0D0A7D00003C68746D6C3E0D0A8A
:10CF3000093C686561643E0D0A09093C6D657461D0
:10CF400020687474702D65717569763D22436F6E2B
:10CF500074656E742D547970652220636F6E7465EC
:10CF60006E743D22746578742F68746D6C3B206319
:10CF70006861727365743D7574662D38223E0D0AC2
:10CF800009093C6D65746120687474702D65717554
:10CF900069763D22507261676D612220636F6E7405
:10CFA000656E743D226E6F2D6361636865223E0D70
:10CFB0000A09093C6C696E6B2072656C3D227374C2
:10CFC000796C6573686565742220687265663D22B8
:10CFD0002E2F6373732F7374796C652E63737322B2
:10CFE00020747970653D22746578742F63737322A1
:10CFF0003E0D0A09093C6C696E6B2072656C3D221E
:10D000007374796C657368656574222068726566EF
:10D010003D222E2F6373732F7374617475732E63A7
:10D0200073732220747970653D22746578742F6360
:10D030007373223E200D0A09093C73637269707490
:10D0400020747970653D22746578742F6A61766109
:10D0500073637269707422207372633D222E2F6A8B
:10D06000732F7574696C2E6A73223E3C2F73637242
:10D070006970743E0D0A09093C736372697074200B
:10D08000747970653D22746578742F6A6176617376
:10D09000637269707422207372633D222E2F6A734B
:10D0A0002F636F6E7374616E742E6A73223E3C2F11
:10D0B0007363726970743E0D0A09093C7363726987
:10D0C000707420747970653D22746578742F6A617C
:10D0D000766173637269707422207372633D222ECD
:10D0E0002F6A732F7461626465732E6A73223E3CEB
:10D0F0002F7363726970743E0D0A09093C73637281
:10D1000069707420747970653D22746578742F6A33
:10D1100061766173637269707422207372633D2259
:10D120002E2F6A732F6A73646966662E6A73223EB5
:10D130003C2F7363726970743E0D0A09093C736376
:10D140007269707420747970653D22746578742FEB
:10D150006A61766173637269707422207372633DD1
:10D16000222E2F6A732F616C61726D5F64695F613B
:10D170006C61726D2E6A73223E3C2F73637269700C
:10D18000743E0D0A09093C736372697074207479E6
:10D1900070653D22746578742F6A6176617363727D
:10D1A000697074223E0D0A090909646F63756D6523
:10D1B0006E742E777269746528223C7469746C658C
:10D1C0003E222B4C616E677561676555495B22563F
:10D1D0005F535441545F6468637057656274697447
:10D1E0006C65225D2B223C2F7469746C653E22298C
:10D1F000203B0D0A0909092F2F2053657373696FAE
:10D200006E204B65790D0A09090976617220764115
:10D210006C61726D4449203D2041727261792838F9
:10D22000293B0D0A0909090D0A09093C2F7363728C
:10D230006970743E0D0A093C2F686561643E0D0AF1
:10D24000093C626F6479206F6E6C6F61643D224CA3
:10D250006F61644672616D6528292220636C617379
:10D26000733D226D61696E626F6479223E0D0A0919
:10D27000093C646976207374796C653D226F76652C
:10D2800072666C6F772D783A68696464656E3B20CE
:10D290006F766572666C6F772D793A6175746F3B46
:10D2A0002057494454483A20313030253B204845E6
:10D2B000494748543A203436307078223E0D0A09E6
:10D2C00009093C666F726D2069643D22436F6E668A
:10D2D0006967466F726D223E0D0A090909093C21F2
:10D2E0002D2D20494E54524F44554354494F4E2002
:10D2F00054455854202D2D3E0D0A090909093C7446
:10D3000061626C6520636C6173733D22776964743C
:10D31000685F31303070222069643D22746162544C
:10D320006573742220626F726465723D2230222020
:10D3300063656C6C70616464696E673D22302220A5
:10D3400063656C6C73706163696E673D2230223E69
:10D350000D0A09090909093C74626F64793E0D0AD6
:10D360000909090909093C74723E0D0A09090909EC
:10D370000909093C746420636C6173733D22707207
:10D380006F6D7074223E0D0A090909090909093CEB
:10D390007461626C6520636C6173733D22776964AC
:10D3A00074685F313030702220626F726465723D44
:10D3B0002230222063656C6C70616464696E673D25
:10D3C0002230222063656C6C73706163696E673D07
:10D3D0002230223E0D0A09090909090909093C748C
:10D3E000626F64793E0D0A090909090909090909E9
:10D3F0003C74723E0D0A090909090909090909095C
:10D400003C746420636C6173733D227469746C6551
:10D410005F636F6D6D6F6E222042696E6454657834
:10D42000743D22565F414C41524D5F6469546974AA
:10D430006C65496E74726F223E3C2F74643E0D0A17
:10D440000909090909090909093C2F74723E0D0AE5
:10D4500009090909090909093C2F74626F64793EB9
:10D460000D0A090909090909093C2F7461626C65F3
:10D470003E3C2F74643E0D0A0909090909093C2F35
:10D4800074723E0D0A0909090909093C74723E0DBE
:10D490000A090909090909093C746420636C61736C
:10D4A000733D226865696768743570223E3C2F744D
:10D4B000643E0D0A0909090909093C2F74723E0DE1
:10D4C0000A09090909093C2F74626F64793E0D0A43
:10D4D000090909093C2F7461626C653E0D0A0D0A49
:10D4E000090909093C7461626C6520636C6173739E
:10D4F0003D22746162616C5F626720776964746861
:10D500005F31303070222069643D22646863706945
:10D510006E666F2220616C69676E3D2263656E7472
:10D5200065722220626F726465723D223022206330
:10D53000656C6C70616464696E673D2230222063A3
:10D54000656C6C73706163696E673D2231223E0DBC
:10D550000A09090909093C74626F64793E090909DD
:10D5600009090D0A0909090909093C212D2D204144
:10D570004C41524D20444931202D2D3E0D0A0909C0
:10D58000090909093C74723E0D0A090909090909CA
:10D59000093C746420636C6173733D227461626141
:10D5A0006C5F6C6566742077696474685F3335708E
:10D5B000222042696E64546578743D22565F414C66
:10D5C00041524D5F616C61726D44493122203E3C95
:10D5D0002F74643E0D0A090909090909093C74649C
:10D5E00020636C6173733D22746162616C5F726968
:10D5F0006768742077696474685F363570222069C3
:10D60000643D226964616C61726D5F444931223E00
:10D610003C2F74643E090909090909090D0A090921
:10D62000090909093C2F74723E0D0A090909090903
:10D63000093C212D2D20414C41524D20444932209E
:10D640002D2D3E0D0A0909090909093C74723E0D88
:10D650000A090909090909093C746420636C6173AA
:10D66000733D22746162616C5F6C656674207769DA
:10D670006474685F333570222042696E6454657843
:10D68000743D22565F414C41524D5F616C61726D39
:10D69000444932223E3C2F74643E0D0A09090909AF
:10D6A0000909093C746420636C6173733D227461E1
:10D6B00062616C5F72696768742077696474685F1F
:10D6C000363570222069643D226964616C61726D37
:10D6D0005F444932223E3C2F74643E09090909091E
:10D6E00009090D0A0909090909093C2F74723E0D3F
:10D6F0000A0909090909093C212D2D20414C4152F3
:10D700004D20444933202D2D3E0D0A0909090909F0
:10D71000093C74723E0D0A090909090909093C749A
:10D720006420636C6173733D22746162616C5F6C31
:10D730006566742077696474685F333570222042AF
:10D74000696E64546578743D22565F414C41524D78
:10D750005F616C61726D444933223E3C2F74643EBC
:10D760000D0A090909090909093C746420636C61FF
:10D7700073733D22746162616C5F726967687420C3
:10D7800077696474685F36357020222069643D22B1
:10D790006964616C61726D5F444933223E3C2F7451
:10D7A000643E090909090909090D0A090909090954
:10D7B000093C2F74723E09090D0A09090909090972
:10D7C0003C212D2D20414C41524D20444934202DE7
:10D7D0002D3E0909090909090D0A0909090909095B
:10D7E0003C74723E0D0A090909090909093C74646F
:10D7F00020636C6173733D22746162616C5F6C6560
:10D8000066742077696474685F33357022204269DA
:10D810006E64546578743D22565F414C41524D5FB1
:10D82000616C61726D444934223E3C2F74643E0D3C
:10D830000A090909090909093C746420636C6173C8
:10D84000733D22746162616C5F72696768742077EE
:10D85000696474685F363570222069643D226964AA
:10D86000616C61726D5F444934223E3C2F74643EAA
:10D87000090909090909090D0A0909090909093CE0
:10D880002F74723E0D0A0909090909093C212D2D41
:10D8900020414C41524D20444935202D2D3E0D0A4A
:10D8A0000909090909093C74723E0D0A09090909A7
:10D8B0000909093C746420636C6173733D227461CF
:10D8C00062616C5F6C6566742077696474685F334D
:10D8D0003570222042696E64546578743D22565F2B
:10D8E000414C41524D5F616C61726D444935223E3D
:10D8F0003C2F74643E0D0A090909090909093C74A1
:10D900006420636C6173733D22746162616C5F7249
:10D91000696768742077696474685F36357022209F
:10D9200069643D226964616C61726D5F44493522AE
:10D930003E3C2F74643E090909090909090D0A09C9
:10D9400009090909093C2F74723E0D0A09090909E0
:10D9500009093C212D2D20414C41524D204449368E
:10D96000202D2D3E0D0A0909090909093C74723E52
:10D970000D0A090909090909093C746420636C61ED
:10D9800073733D22746162616C5F6C6566742077AD
:10D99000696474685F333570222042696E6454652F
:10D9A00078743D22565F414C41524D5F616C61720B
:10D9B0006D444936223E3C2F74643E0D0A09090924
:10D9C000090909093C746420636C6173733D227416
:10D9D0006162616C5F7269676874207769647468FA
:10D9E0005F363570222069643D226964616C617222
:10D9F0006D5F444936223E3C2F74643E0909090993
:10DA00000909090D0A0909090909093C2F74723E1F
:10DA10000D0A0909090909093C212D2D20414C4114
:10DA2000524D20444937202D2D3E09090909090985
:10DA30000D0A0909090909093C74723E0D0A090910
:10DA400009090909093C746420636C6173733D2200
:10DA5000746162616C5F6C65667420776964746878
:10DA60005F333570222042696E64546578743D22BC
:10DA7000565F414C41524D5F616C61726D44493754
:10DA8000223E3C2F74643E0D0A090909090909095F
:10DA90003C746420636C6173733D22746162616CD9
:10DAA0005F72696768742077696474685F3635707F
:10DAB000222069643D226964616C61726D5F444932
:10DAC00037223E3C2F74643E09090D0A09090909F1
:10DAD00009093C2F74723E090D0A0909090909094F
:10DAE0003C212D2D20414C41524D20444938202DC0
:10DAF0002D3E0909090909090D0A09090909090938
:10DB00003C74723E0D0A090909090909093C74644B
:10DB100020636C6173733D22746162616C5F6C653C
:10DB200066742077696474685F33357022204269B7
:10DB30006E64546578743D22565F414C41524D5F8E
:10DB4000616C61726D444938223E3C2F74643E0D15
:10DB50000A090909090909093C746420636C6173A5
:10DB6000733D22746162616C5F72696768742077CB
:10DB7000696474685F363570222069643D22696487
:10DB8000616C61726D5F444938223E3C2F74643E83
:10DB900009090D0A0909090909093C2F74723E098E
:10DBA000090909090D0A09090909093C2F74626F5D
:10DBB00064793E0D0A090909093C2F7461626C659C
:10DBC0003E0D0A0D0A090909093C7461626C653E43
:10DBD0000D0A09090909093C74723E0D0A0909096F
:10DBE0000909093C7464206865696768743D2235D9
:10DBF0007078223E3C2F74643E0D0A090909090918
:10DC00003C2F74723E0D0A090909093C2F746162A8
:10DC10006C653E0D0A0D0A0909093C2F666F726D8D
:10DC20003E0D0A0D0A09093C2F6469763E0D0A0D66
:10DC30000A093C2F626F64793E0D0A3C2F68746DAF
:10DC40006C3E0D0A3C68746D6C3E0D0A093C6865BB
:10DC500061643E0D0A09093C6D6574612068747445
:10DC6000702D65717569763D22436F6E74656E74B3
:10DC70002D547970652220636F6E74656E743D2239
:10DC8000746578742F68746D6C3B2063686172737F
:10DC900065743D7574662D38223E0D0A09093C6D88
:10DCA00065746120687474702D65717569763D22A4
:10DCB000507261676D612220636F6E74656E743D92
:10DCC000226E6F2D6361636865223E0D0A09093C6F
:10DCD0006C696E6B2072656C3D227374796C657330
:10DCE000686565742220687265663D222E2F637315
:10DCF000732F7374796C652E63737322207479703B
:10DD0000653D22746578742F637373223E0D0A0992
:10DD1000093C6C696E6B2072656C3D227374796C82
:10DD20006573686565742220687265663D222E2FD2
:10DD30006373732F7374617475732E63737322200E
:10DD4000747970653D22746578742F637373223E15
:10DD5000200D0A09093C736372697074207479702C
:10DD6000653D22746578742F6A61766173637269A8
:10DD7000707422207372633D222E2F6A732F757484
:10DD8000696C2E6A73223E3C2F7363726970743E15
:10DD90000D0A09093C7363726970742074797065A7
:10DDA0003D22746578742F6A61766173637269705D
:10DDB0007422207372633D222E2F6A732F636F6E5D
:10DDC0007374616E742E6A73223E3C2F73637269A2
:10DDD00070743E0D0A09093C736372697074207493
:10DDE0007970653D22746578742F6A61766173631A
:10DDF0007269707422207372633D222E2F6A732F12
:10DE00007461626465732E6A73223E3C2F73637281
:10DE10006970743E0D0A09093C736372697074205D
:10DE2000747970653D22746578742F6A61766173C8
:10DE3000637269707422207372633D222E2F6A739D
:10DE40002F6A73646966662E6A73223E3C2F736381
:10DE5000726970743E0D0A09093C736372697074CB
:10DE600020747970653D22746578742F6A617661DB
:10DE700073637269707422207372633D222E2F6A5D
:10DE8000732F616C61726D5F67656E6572616C5F47
:10DE9000616C61726D2E6A73223E3C2F73637269EE
:10DEA00070743E0D0A09093C7363726970742074C2
:10DEB0007970653D22746578742F6A617661736349
:10DEC00072697074223E0D0A090909646F63756DE9
:10DED000656E742E777269746528223C7469746C5F
:10DEE000653E222B4C616E677561676555495B2203
:10DEF000565F535441545F64686370576562746938
:10DF0000746C65225D2B223C2F7469746C653E2213
:10DF100029203B0D0A0909092F2F205365737369C6
:10DF20006F6E204B65790D0A0909097661722076BA
:10DF3000416C61726D42617474486954656D702002
:10DF40003D20303B0D0A0909097661722076416C4B
:10DF500061726D4C4C5644203D20303B0D0A09093E
:10DF6000097661722076416C61726D424C56442094
:10DF70003D20303B0D0A0909097661722076416C1B
:10DF800061726D44434C6F77203D20303B0D0A0990
:10DF900009097661722076416C61726D4143466178
:10DFA000696C203D20303B0D0A0909097661722019
:10DFB00076416C61726D426174744342203D203041
:10DFC0003B0D0A0909097661722076416C61726D18
:10DFD0004C6F61644342203D20303B0D0A09090922
:10DFE0007661722076416C61726D52656374414353
:10DFF0004661756C74203D20303B0D0A0909097695
:10E0000061722076416C61726D526563744E6F521D
:10E01000657370203D20303B0D0A09090976617255
:10E020002076416C61726D4D616E4D6F6465203D6F
:10E0300020303B0D0A0909097661722076416C6136
:10E04000726D41635468726573203D20303B0D0A48
:10E050000909097661722076416C61726D536D6FAA
:10E060006B65203D20303B0D0A090909766172205D
:10E0700076416C61726D446F6F724F70656E203DBA
:10E0800020303B0D0A09090D0A09093C2F73637200
:10E090006970743E0D0A093C2F686561643E0D0A83
:10E0A000093C626F6479206F6E6C6F61643D224C35
:10E0B0006F61644672616D6528292220636C61730B
:10E0C000733D226D61696E626F6479223E0D0A09AB
:10E0D000093C646976207374796C653D226F7665BE
:10E0E00072666C6F772D783A68696464656E3B2060
:10E0F0006F766572666C6F772D793A6175746F3BD8
:10E100002057494454483A20313030253B20484577
:10E11000494748543A203436307078223E0D0A0977
:10E1200009093C666F726D2069643D22436F6E661B
:10E130006967466F726D223E0D0A090909093C2183
:10E140002D2D20494E54524F44554354494F4E2093
:10E1500054455854202D2D3E0D0A090909093C74D7
:10E1600061626C6520636C6173733D2277696474CE
:10E17000685F31303070222069643D2274616254DE
:10E180006573742220626F726465723D22302220B2
:10E1900063656C6C70616464696E673D2230222037
:10E1A00063656C6C73706163696E673D2230223EFB
:10E1B0000D0A09090909093C74626F64793E0D0A68
:10E1C0000909090909093C74723E0D0A090909097E
:10E1D0000909093C746420636C6173733D22707299
:10E1E0006F6D7074223E0D0A090909090909093C7D
:10E1F0007461626C6520636C6173733D227769643E
:10E2000074685F313030702220626F726465723DD5
:10E210002230222063656C6C70616464696E673DB6
:10E220002230222063656C6C73706163696E673D98
:10E230002230223E0D0A09090909090909093C741D
:10E24000626F64793E0D0A0909090909090909097A
:10E250003C74723E0D0A09090909090909090909ED
:10E260003C746420636C6173733D227469746C65E3
:10E270005F636F6D6D6F6E222042696E64546578C6
:10E28000743D22565F414C41524D5F67656E657229
:10E29000616C5469746C65496E74726F223E3C2FD8
:10E2A00074643E0D0A0909090909090909093C2F85
:10E2B00074723E0D0A09090909090909093C2F74FC
:10E2C000626F64793E0D0A090909090909093C2FA1
:10E2D0007461626C653E3C2F74643E0D0A09090945
:10E2E0000909093C2F74723E0D0A09090909090937
:10E2F0003C74723E0D0A090909090909093C746454
:10E3000020636C6173733D2268656967687435705A
:10E31000223E3C2F74643E0D0A0909090909093C93
:10E320002F74723E0D0A09090909093C2F74626FA6
:10E3300064793E0D0A090909093C2F7461626C6514
:10E340003E0D0A0D0A090909093C7461626C6520D9
:10E35000636C6173733D22746162616C5F626720FC
:10E3600077696474685F31303070222069643D22BF
:10E3700064686370696E666F2220616C69676E3DC8
:10E380002263656E7465722220626F726465723DED
:10E390002230222063656C6C70616464696E673D35
:10E3A0002230222063656C6C73706163696E673D17
:10E3B0002231223E0D0A09090909093C74626F6481
:10E3C000793E090909090D0A0909090909093C21C8
:10E3D0002D2D20414C41524D20424154544552591B
:10E3E00020484947482054454D50202D2D3E0D0AC8
:10E3F0000909090909093C74723E0D0A090909094C
:10E400000909093C746420636C6173733D22746173
:10E4100062616C5F6C6566742077696474685F33F1
:10E420003570222042696E64546578743D22565FCF
:10E43000414C41524D5F616C61726D426174744830
:10E440006954656D7022203E3C2F74643E0D0A09AC
:10E450000909090909093C746420636C6173733DFF
:10E4600022746162616C5F726967687420776964A5
:10E4700074685F363570222069643D226964616C7E
:10E4800061726D5F42617474486954656D70223EBB
:10E490003C2F74643E090909090909090D0A090993
:10E4A000090909093C2F74723E0D0A090909090975
:10E4B000093C212D2D20414C41524D204C4C5644BD
:10E4C000202D2D3E0D0A0909090909093C74723EE7
:10E4D0000D0A090909090909093C746420636C6182
:10E4E00073733D22746162616C5F6C656674207742
:10E4F000696474685F333570222042696E645465C4
:10E5000078743D22565F414C41524D5F616C61729F
:10E510006D4C4C5644223E3C2F74643E0D0A090952
:10E5200009090909093C746420636C6173733D2215
:10E53000746162616C5F7269676874207769647482
:10E54000685F363570222069643D226964616C61C0
:10E55000726D5F4C4C5644223E3C2F74643E090958
:10E5600009090909090D0A0909090909093C2F7452
:10E57000723E0D0A0909090909093C212D2D204186
:10E580004C41524D20424C5644202D2D3E0D0A093F
:10E5900009090909093C74723E0D0A0909090909AA
:10E5A00009093C746420636C6173733D2274616279
:10E5B000616C5F6C6566742077696474685F33357D
:10E5C00070222042696E64546578743D22565F4122
:10E5D0004C41524D5F616C61726D424C5644223E1B
:10E5E0003C2F74643E0D0A090909090909093C74A4
:10E5F0006420636C6173733D22746162616C5F724D
:10E60000696768742077696474685F3635702022A2
:10E610002069643D226964616C61726D5F424C5691
:10E6200044223E3C2F74643E090909090909090D79
:10E630000A0909090909093C2F74723E09090D0AE2
:10E640000909090909093C212D2D20414C41524D50
:10E65000204443204C4F57202D2D3E09090909091C
:10E66000090D0A0909090909093C74723E0D0A09D4
:10E670000909090909093C746420636C6173733DDD
:10E6800022746162616C5F6C656674207769647482
:10E69000685F333570222042696E64546578743D3A
:10E6A00022565F414C41524D5F616C61726D444333
:10E6B0004C6F77223E3C2F74643E0D0A090909090C
:10E6C0000909093C746420636C6173733D227461B1
:10E6D00062616C5F72696768742077696474685FEF
:10E6E000363570222069643D226964616C61726D07
:10E6F0005F44434C6F77223E3C2F74643E09090906
:10E70000090909090D0A0909090909093C2F747247
:10E710003E0D0A0909090909093C212D2D20414C0A
:10E7200041524D204143204641494C202D2D3E0D64
:10E730000A0909090909093C74723E0D0A09090907
:10E74000090909093C746420636C6173733D227488
:10E750006162616C5F6C6566742077696474685F80
:10E76000333570222042696E64546578743D2256B8
:10E770005F414C41524D5F616C61726D4143466136
:10E78000696C223E3C2F74643E0D0A09090909098F
:10E7900009093C746420636C6173733D2274616287
:10E7A000616C5F72696768742077696474685F364A
:10E7B0003570222069643D226964616C61726D5F0D
:10E7C00041434661696C223E3C2F74643E0909094D
:10E7D000090909090D0A0909090909093C2F747277
:10E7E0003E0D0A0909090909093C212D2D20414C3A
:10E7F00041524D2042415454455259204342202D0C
:10E800002D3E0D0A0909090909093C74723E0D0AD9
:10E81000090909090909093C746420636C6173736F
:10E820003D22746162616C5F6C6566742077696417
:10E8300074685F333570222042696E645465787461
:10E840003D22565F414C41524D5F616C61726D4299
:10E850006174744342223E3C2F74643E0D0A0909E0
:10E8600009090909093C746420636C6173733D22D2
:10E87000746162616C5F726967687420776964743F
:10E88000685F363570222069643D226964616C617D
:10E89000726D5F426174744342223E3C2F74643E49
:10E8A000090909090909090D0A0909090909093CA0
:10E8B0002F74723E0D0A0909090909093C212D2D01
:10E8C00020414C41524D204C4F4144204342202D89
:10E8D0002D3E0909090909090D0A0909090909094A
:10E8E0003C74723E0D0A090909090909093C74645E
:10E8F00020636C6173733D22746162616C5F6C654F
:10E9000066742077696474685F33357022204269C9
:10E910006E64546578743D22565F414C41524D5FA0
:10E92000616C61726D4C6F61644342223E3C2F7496
:10E93000643E0D0A090909090909093C7464206348
:10E940006C6173733D22746162616C5F72696768A8
:10E95000742077696474685F363570222069643D7D
:10E96000226964616C61726D5F4C6F616443422225
:10E970003E3C2F74643E09090D0A09090909090979
:10E980003C2F74723E090D0A0909090909093C2145
:10E990002D2D20414C41524D20524543542041439E
:10E9A000204641554C54202D2D3E090909090909DD
:10E9B0000D0A0909090909093C74723E0D0A090981
:10E9C00009090909093C746420636C6173733D2271
:10E9D000746162616C5F6C656674207769647468E9
:10E9E0005F333570222042696E64546578743D222D
:10E9F000565F414C41524D5F616C61726D5265636F
:10EA00007441434661756C74223E3C2F74643E0D24
:10EA10000A090909090909093C746420636C6173D6
:10EA2000733D22746162616C5F72696768742077FC
:10EA3000696474685F363570222069643D226964B8
:10EA4000616C61726D5F5265637441434661756CC0
:10EA500074223E3C2F74643E09090D0A0909090914
:10EA600009093C2F74723E090D0A090909090909AF
:10EA70003C212D2D20414C41524D205245435420E4
:10EA80004E4F20524553504F4E5345202D2D3E0999
:10EA900009090909090D0A0909090909093C7472DA
:10EAA0003E0D0A090909090909093C746420636CCF
:10EAB0006173733D22746162616C5F6C6566742082
:10EAC00077696474685F333570222042696E6454DC
:10EAD0006578743D22565F414C41524D5F616C61D7
:10EAE000726D526563744E6F52657370223E3C2F97
:10EAF00074643E0D0A090909090909093C74642076
:10EB0000636C6173733D22746162616C5F726967EB
:10EB100068742077696474685F3635702220696490
:10EB20003D226964616C61726D5F526563744E6F02
:10EB300052657370223E3C2F74643E09090D0A0928
:10EB400009090909093C2F74723E0D0A09090909CE
:10EB500009093C212D2D20414C41524D204D414E63
:10EB600055414C204D4F4445202D2D3E09090909A2
:10EB700009090D0A0909090909093C74723E0D0ABF
:10EB8000090909090909093C746420636C617373FC
:10EB90003D22746162616C5F6C65667420776964A4
:10EBA00074685F333570222042696E6454657874EE
:10EBB0003D22565F414C41524D5F616C61726D4D1B
:10EBC000616E4D6F6465223E3C2F74643E0D0A09F0
:10EBD0000909090909093C746420636C6173733D78
:10EBE00022746162616C5F7269676874207769641E
:10EBF00074685F363570222069643D226964616CF7
:10EC000061726D5F4D616E4D6F6465223E3C2F7485
:10EC1000643E09090D0A0909090909093C2F7472A2
:10EC20003E090D0A0909090909093C212D2D204138
:10EC30004C41524D204143204C4F57202D2D3E0931
:10EC400009090909090D0A0909090909093C747228
:10EC50003E0D0A090909090909093C746420636C1D
:10EC60006173733D22746162616C5F6C65667420D0
:10EC700077696474685F333570222042696E64542A
:10EC80006578743D22565F414C41524D5F616C6125
:10EC9000726D41435468726573223E3C2F74643E2A
:10ECA0000D0A090909090909093C746420636C61AA
:10ECB00073733D22746162616C5F7269676874206E
:10ECC00077696474685F363570222069643D226913
:10ECD00064616C61726D5F41435468726573223E7A
:10ECE0003C2F74643E09090D0A0909090909093C08
:10ECF0002F74723E090D0A0909090909093C212DE1
:10ED00002D20414C41524D20534D4F4B45202D2D30
:10ED10003E0909090909090D0A0909090909093CF6
:10ED200074723E0D0A090909090909093C74642035
:10ED3000636C6173733D22746162616C5F6C6566C4
:10ED4000742077696474685F333570222042696E7D
:10ED500064546578743D22565F414C41524D5F6169
:10ED60006C61726D536D6F6B65223E3C2F74643E17
:10ED70000D0A090909090909093C746420636C61D9
:10ED800073733D22746162616C5F7269676874209D
:10ED900077696474685F363570222069643D226942
:10EDA00064616C61726D5F536D6F6B65223E3C2FC9
:10EDB00074643E09090D0A0909090909093C2F74FF
:10EDC000723E090D0A0909090909093C212D2D2066
:10EDD000414C41524D20444F4F52204F50454E2000
:10EDE0002D2D3E0909090909090D0A090909090911
:10EDF000093C74723E0D0A090909090909093C74A4
:10EE00006420636C6173733D22746162616C5F6C3A
:10EE10006566742077696474685F333570222042B8
:10EE2000696E64546578743D22565F414C41524D81
:10EE30005F616C61726D446F6F724F70656E223EE0
:10EE40003C2F74643E0D0A090909090909093C743B
:10EE50006420636C6173733D22746162616C5F72E4
:10EE6000696768742077696474685F36357022203A
:10EE700069643D226964616C61726D5F446F6F7299
:10EE80004F70656E223E3C2F74643E09090D0A09DD
:10EE900009090909093C2F74723E09090909090980
:10EEA000090D0A09090909093C2F74626F64793E4A
:10EEB0000D0A090909093C2F7461626C653E0D0A4F
:10EEC0000D0A090909093C7461626C653E0D0A0965
:10EED000090909093C74723E0D0A09090909090961
:10EEE0003C7464206865696768743D2235707822D7
:10EEF0003E3C2F74643E0D0A09090909093C2F7430
:10EF0000723E0D0A090909093C2F7461626C653E65
:10EF10000D0A0D0A0909093C2F666F726D3E0D0A34
:10EF20000D0A09093C2F6469763E0D0A0D0A093C59
:10EF30002F626F64793E0D0A3C2F68746D6C3E0D34
:10EF40000A0000003C68746D6C3E0D0A093C68655F
:10EF500061643E0D0A09093C6D6574612068747432
:10EF6000702D65717569763D22436F6E74656E74A0
:10EF70002D547970652220636F6E74656E743D2226
:10EF8000746578742F68746D6C3B2063686172736C
:10EF900065743D7574662D38223E0D0A09093C6D75
:10EFA00065746120687474702D65717569763D2291
:10EFB000507261676D612220636F6E74656E743D7F
:10EFC000226E6F2D6361636865223E0D0A09093C5C
:10EFD0006C696E6B2072656C3D227374796C65731D
:10EFE000686565742220687265663D222E2F637302
:10EFF000732F7374796C652E637373222074797028
:10F00000653D22746578742F637373223E0D0A097F
:10F01000093C6C696E6B2072656C3D227374796C6F
:10F020006573686565742220687265663D222E2FBF
:10F030006373732F7374617475732E6373732220FB
:10F04000747970653D22746578742F637373223E02
:10F05000200D0A09093C6C696E6B2072656C3D22BB
:10F060007374796C6573686565742220687265666F
:10F070003D222E2F6373732F77616E5F636F6E6611
:10F08000696775726174696F6E2E63737322207481
:10F090007970653D22746578742F637373223E2006
:10F0A0000D0A09093C736372697074207479706584
:10F0B0003D22746578742F6A61766173637269703A
:10F0C0007422207372633D222E2F6A732F75746928
:10F0D0006C2E6A73223E3C2F7363726970743E0D0E
:10F0E0000A09093C73637269707420747970653D14
:10F0F00022746578742F6A617661736372697074C3
:10F1000022207372633D222E2F6A732F636F6E73FA
:10F1100074616E742E6A73223E3C2F736372697041
:10F12000743E0D0A09093C73637269707420747926
:10F1300070653D22746578742F6A617661736372BD
:10F1400069707422207372633D222E2F6A732F74AC
:10F1500061626465732E6A73223E3C2F7363726929
:10F1600070743E0D0A09093C7363726970742074EF
:10F170007970653D22746578742F6A617661736376
:10F180007269707422207372633D222E2F6A732F6E
:10F190006A73646966662E6A73223E3C2F736372DB
:10F1A0006970743E09090D0A09093C73637269703C
:10F1B0007420747970653D22746578742F6A617665
:10F1C0006173637269707422207372633D222E2F03
:10F1D0006A732F6A71756572792E6D696E2E6A7306
:10F1E000223E3C2F7363726970743E0D0A09093C1C
:10F1F00073637269707420747970653D22746578E8
:10F20000742F6A61766173637269707422207372FD
:10F21000633D222E2F6A732F616C61726D5F686986
:10F2200073746F72795F616C61726D2E6A73223EC6
:10F230003C2F7363726970743E0D0A09093C736355
:10F240007269707420747970653D22746578742FCA
:10F250006A617661736372697074223E0D0A0909EE
:10F2600009646F63756D656E742E777269746528B5
:10F27000223C7469746C653E222B4C616E6775612B
:10F28000676555495B22565F535441545F64686318
:10F29000705765627469746C65225D2B223C2F7413
:10F2A00069746C653E2229203B0D0A0909092F2F3C
:10F2B0002053657373696F6E204B65790909090DD9
:10F2C0000A09093C2F7363726970743E0D0A093C88
:10F2D0002F686561643E0D0A093C626F6479206F96
:10F2E0006E6C6F61643D224C6F61644672616D6546
:10F2F00028292220636C6173733D226D61696E62FF
:10F300006F6479223E0D0A09093C646976207374A2
:10F31000796C653D226F766572666C6F772D783AF1
:10F3200068696464656E3B206F766572666C6F77A2
:10F330002D793A6175746F3B2057494454483A20FF
:10F34000313030253B204845494748543A2034362F
:10F35000307078223E0D0A0909093C666F726D20F3
:10F3600069643D22436F6E666967466F726D223E27
:10F370000D0A090909093C212D2D20494E54524FEF
:10F3800044554354494F4E2054455854202D2D3E4A
:10F390000D0A090909093C7461626C6520636C619E
:10F3A00073733D2277696474685F31303070222056
:10F3B00069643D22746162546573742220626F72C5
:10F3C0006465723D2230222063656C6C70616464F8
:10F3D000696E673D2230222063656C6C73706163D7
:10F3E000696E673D2230223E0D0A09090909093C70
:10F3F00074626F64793E0D0A0909090909093C74B0
:10F40000723E0D0A090909090909093C746420635F
:10F410006C6173733D2270726F6D7074223E0D0AC1
:10F42000090909090909093C7461626C6520636C6A
:10F430006173733D2277696474685F313030702284
:10F4400020626F726465723D2230222063656C6CAD
:10F4500070616464696E673D2230222063656C6C64
:10F4600073706163696E673D2230223E0D0A09099F
:10F470000909090909093C74626F64793E0D0A099A
:10F4800009090909090909093C74723E0D0A0909AB
:10F4900009090909090909093C746420636C61734D
:10F4A000733D227469746C655F636F6D6D6F6E225E
:10F4B0002042696E64546578743D22565F414C4128
:10F4C000524D5F616C726D4869735469746C654923
:10F4D0006E74726F223E3C2F74643E0D0A09090956
:10F4E0000909090909093C2F74723E0D0A09090925
:10F4F00009090909093C2F74626F64793E0D0A09F4
:10F500000909090909093C2F7461626C653E3C2FA9
:10F5100074643E0D0A0909090909093C2F74723EF9
:10F520000D0A0909090909093C74723E0D0A090905
:10F5300009090909093C746420636C6173733D22F5
:10F540006865696768743570223E3C2F74643E0DAF
:10F550000A0909090909093C2F74723E0D0A0909B3
:10F560000909093C2F74626F64793E0D0A09090983
:10F57000093C2F7461626C653E0D0A0D0A09090988
:10F58000093C7461626C653E0D0A09090909093C70
:10F5900074723E0D0A0909090909093C746420685E
:10F5A00065696768743D22357078223E3C2F74642B
:10F5B0003E0D0A09090909093C2F74723E0D0A091A
:10F5C0000909093C2F7461626C653E0D0A0D0A0938
:10F5D0000909093C212D2D20434C49454E54204911
:10F5E0004E464F202D2D3E0D0A090909093C746134
:10F5F000626C6520636C6173733D22776964746823
:10F600005F31303070222069643D2274616254653C
:10F6100073742220626F726465723D22302220630F
:10F62000656C6C70616464696E673D223022206392
:10F63000656C6C73706163696E673D2230223E0DAC
:10F640000A09090909093C74626F64793E0D0A09C7
:10F6500009090909093C74723E0D0A0909090909D9
:10F6600009093C746420616C69676E3D226C6566B3
:10F6700074223E3C696E70757420747970653D2209
:10F68000627574746F6E222076616C75653D2252CE
:10F69000656164204C6F672046696C65222069644F
:10F6A0003D22526561644C6F67427574746F6E22BF
:10F6B000206F6E636C69636B3D22627574746F6E4C
:10F6C00050757368282922202F3E3C2F74643E0D0C
:10F6D0000A0909090909093C2F74723E0D0A090932
:10F6E0000909093C2F74626F64793E0D0A09090902
:10F6F000093C2F7461626C653E0D0A0D0A09090907
:10F70000093C7461626C653E0D0A09090909093CEE
:10F7100074723E0D0A0909090909093C74642068DC
:10F7200065696768743D22357078223E3C2F7464A9
:10F730003E0D0A09090909093C2F74723E0D0A0998
:10F740000909093C2F7461626C653E0D0A090909BB
:10F75000090D0A090909093C6469762069643D229A
:10F760006D7950726F6772657373223E0D0A0909D5
:10F77000090920203C6469762069643D226D794244
:10F780006172223E30253C2F6469763E0D0A0909DC
:10F7900009093C2F6469763E0D0A090909090D0A19
:10F7A000090909093C7461626C653E0D0A09090981
:10F7B00009093C74723E0D0A0909090909093C74DA
:10F7C00064206865696768743D22357078223E3C24
:10F7D0002F74643E0D0A09090909093C2F74723E11
:10F7E0000D0A090909093C2F7461626C653E0D0A16
:10F7F000090909090D0A090909093C6469762069A2
:10F80000643D2264765461626C65223E0D0A0909EA
:10F8100009093C2F6469763E200D0A09090909206F
:10F82000200D0A090909090D0A0909093C2F666F0B
:10F83000726D3E0D0A0D0A09093C2F6469763E0D72
:10F840000A0D0A093C2F626F64793E0D0A3C2F684D
:10F85000746D6C3E0D0A0000626F6479207B0D0AA6
:10F8600020202020636F6C6F723A20233566356646
:10F8700035663B0D0A202020206261636B67726F42
:10F88000756E642D636F6C6F723A202366666666D0
:10F8900066663B0D0A7D0D0A7464207B0D0A2020EC
:10F8A0002020636F6C6F723A2023356635663566AB
:10F8B0003B0D0A202020206261636B67726F756EBA
:10F8C000642D636F6C6F723A2023666666666666A7
:10F8D0003B0D0A7D0D0A74642E747874207B0D0A2A
:10F8E000202020206261636B67726F756E642D63E8
:10F8F0006F6C6F723A20236631663065653B0D0A86
:10F900007D0D0A74642E6D656E75207B0D0A2020B6
:10F9100020206261636B67726F756E642D636F6C1C
:10F920006F723A20236638663866383B0D0A7D0DC3
:10F930000A74642E6864207B0D0A20202020636FE7
:10F940006C6F723A20233566356635663B0D0A20AA
:10F950002020206261636B67726F756E642D636F28
:10F960006C6F723A20236530653065303B0D0A7D3F
:10F970000D0A696E707574207B0D0A2020202063AB
:10F980006F6C6F723A20233566356635663B0D0A1B
:10F990007D0D0A2E666F6F746572626F6479207BCD
:10F9A0000D0A20202020626F726465722D746F70C2
:10F9B0003A20236237303032342031707820736F30
:10F9C0006C69643B0D0A20202020626F72646572AE
:10F9D0002D626F74746F6D3A202362373030323489
:10F9E0002031707820736F6C69643B0D0A202020F1
:10F9F000206261636B67726F756E643A20233030EA
:10FA000030303030206E6F6E653B0D0A7D0D0A2E52
:10FA1000666F6F7465727464207B0D0A202020204D
:10FA20006261636B67726F756E642D636F6C6F726A
:10FA30003A20233030303030303B0D0A7D0D0A2E15
:10FA40006D61696E4D656E75426F6479207B0D0A3C
:10FA5000202020206261636B67726F756E643A20AC
:10FA600023666666666666206E6F6E653B0D0A7D70
:10FA70000D0A2E6D656E754C696E6B207B0D0A202C
:10FA8000202020636F6C6F723A202333333333337B
:10FA9000333B0D0A7D0D0A2E6D656E754C696E6BDC
:10FAA0003A686F766572207B0D0A20202020636FF4
:10FAB0006C6F723A20236666666666663B0D0A20A6
:10FAC0002020206261636B67726F756E642D636FB7
:10FAD0006C6F723A20236237303032343B0D0A7D2E
:10FAE0000D0A2E6D656E754C696E6B3A61637469B3
:10FAF0007665207B0D0A20202020636F6C6F723AA0
:10FB000020236531303032373B0D0A20202020621F
:10FB100061636B67726F756E642D636F6C6F723AA1
:10FB200020236638663866383B0D0A7D0D0A2E6D37
:10FB3000656E754C696E6B3A666F637573207B0DED
:10FB40000A20202020636F6C6F723A2023653130C9
:10FB50003032373B0D0A202020206261636B6772D0
:10FB60006F756E642D636F6C6F723A202366386612
:10FB70003866383B0D0A7D0D0A2E6D656E754C6931
:10FB80006E6B3A666F6375733A686F766572207B49
:10FB90000D0A20202020636F6C6F723A2023666666
:10FBA000666666663B0D0A202020206261636B67F3
:10FBB000726F756E642D636F6C6F723A20236237BB
:10FBC000303032343B0D0A7D0D0A2E6D656E754363
:10FBD000656C6C207B0D0A202020206261636B67BE
:10FBE000726F756E642D636F6C6F723A2023663886
:10FBF000663866383B0D0A7D01E8370000BF00001B
:10FC000000012E019000000062080000022E2E026A
:10FC1000A8380000E80100000C6262737064696635
:10FC2000662E63737302903A0000FC0100000A63C1
:10FC30006F6D6D6F6E2E637373028C3C000008173E
:10FC40000000096672616D652E6373730294530040
:10FC500000B70500000C6E65744572726F722E63FA
:10FC60007373024C590000BC01000007716F732EC2
:10FC700063737302085B0000C62F00000973747978
:10FC80006C652E63737302D08A00000000000008C8
:10FC9000746573742E63737302D08A0000F70300D7
:10FCA000001577616E5F636F6E6669677572617468
:10FCB000696F6E2E637373002E77696474685F6278
:10FCC0006273707573657231207B0D0A0977696400
:10FCD00074683A203133253B0D0A7D0D0A0D0A2E3A
:10FCE00077696474685F62627370757365723220DD
:10FCF0007B0D0A0977696474683A203138253B0D19
:10FD00000A7D0D0A0D0A2E77696474685F6262735A
:10FD1000707573657233207B0D0A097769647468A6
:10FD20003A203138253B0D0A7D0D0A0D0A2E7769E0
:10FD30006474685F626273707573657234207B0DE2
:10FD40000A0977696474683A203136253B0D0A7DCB
:10FD50000D0A0D0A2E77696474685F6262737075AC
:10FD600073657235207B0D0A0977696474683A20DF
:10FD70003230253B0D0A7D0D0A0D0A2E7374796C05
:10FD8000655F626273707573657231207B0D0A095D
:10FD900077696474683A31333070783B0D0A7D0DB1
:10FDA0000A2E77696474685F626273707573657236
:10FDB00031305F35207B0D0A0977696474683A2019
:10FDC00035253B0D0A7D0D0A0D0A2E77696474688E
:10FDD0005F6262737075736572395F3134207B0DB9
:10FDE0000A0977696474683A203134253B0D0A7D2D
:10FDF0000D0A0D0A2E77696474685F62627370750C
:10FE000073657232305F3235207B0D0A0977696481
:10FE100074683A203235253B0D0A7D0D0A0D0A2EF5
:10FE200077696474685F6262737075736572313587
:10FE30005F3235207B0D0A0977696474683A203295
:10FE400035253B0D0A7D0D0A0D0A2E77696474680D
:10FE50005F626273707573657233355F3532207B14
:10FE60000D0A0977696474683A203532253B0D0A1A
:10FE70007D0D0A0D0A2E77696474685F6262737083
:10FE80007573657236355F3438207B0D0A097769E2
:10FE90006474683A203438253B0D0A7D0D0A0D0A3A
:10FEA000EFBBBF2F2A0D0A202A09436F6D6D6F6EBD
:10FEB000205374796C650D0A202A09E9809AE79429
:10FEC000A8E6A0B7E5BC8FE8A1A80D0A202A09433F
:10FED000726561746520427920794B463332323540
:10FEE00032090D0A202A2F0D0A2A207B0D0A0966E5
:10FEF0006F6E742D66616D696C793A20417269612B
:10FF00006C3B0D0A09666F6E742D73697A653A2031
:10FF1000313270783B0D0A09636F6C6F723A20239F
:10FF20003030303030303B0D0A7D0D0A626F64791D
:10FF3000207B0D0A096D617267696E3A2030707816
:10FF40003B0D0A0970616464696E673A203070780D
:10FF50003B0D0A7D0D0A696E7075742E696E7075A1
:10FF60007454657874207B0D0A0968656967687444
:10FF70003A20323170783B0D0A0977696474683A27
:10FF80002031383070783B0D0A09626F72646572F7
:10FF90003A203070783B0D0A09666F6E742D7369D4
:10FFA0007A653A20313270783B0D0A09666F6E74BB
:10FFB0002D66616D696C793A205461686F6D613BA3
:10FFC0000D0A096261636B67726F756E643A207522
:10FFD000726C28272E2E2F696D616765732F6C6FE9
:10FFE00067696E5F696E7570742E67696627292070
:10FFF0007472616E73706172656E74206E6F2D72B3
:020000040001F9
:1000000065706561742063656E7465723B0D0A7D71
:100010000D0A696E7075742E627574746F6E207B34
:100020000D0A096865696768743A20323170783B57
:100030000D0A09626F726465723A2031707820731C
:100040006F6C696420234338433843383B0D0A09F9
:100050006261636B67726F756E643A2075726C28AB
:10006000272E2E2F696D616765732F627574746F0B
:100070006E5F62672E6769662729207472616E73EE
:10008000706172656E74207265706561742D782080
:1000900063656E7465723B0D0A7D0D0AEFBBBF2F61
:1000A0002A0D0A202A094672616D65205374796C05
:1000B000650D0A202A09E4B8BBE9A1B5E6A186E6E8
:1000C0009EB6E6A0B7E5BC8FE8A1A80D0A202A09D4
:1000D00043726561746520427920794B4633323230
:1000E0003532090D0A202A2F0D0A646976236D61C5
:1000F000696E207B0D0A0977696474683A20393586
:100100003570783B0D0A096D617267696E3A20306F
:100110007078206175746F3B0D0A7D0D0A0D0A2FF2
:100120002A20686561646572202A2F0D0A64697649
:10013000236D61696E206469762368656164657208
:10014000207B0D0A096865696768743A2037367044
:10015000783B0D0A7D0D0A646976236D61696E2016
:1001600064697623686561646572206469762368D2
:1001700065616465724C6F676F496D67207B0D0A1E
:1001800009666C6F61743A206C6566743B0D0A09F0
:100190006865696768743A20373070783B0D0A09E2
:1001A00077696474683A2031343470783B0D0A09F9
:1001B0006261636B67726F756E643A2075726C284A
:1001C000272E2E2F696D616765732F62616E6E65D4
:1001D000725F6C6F676F2E6769662729206E6F2DBF
:1001E0007265706561742063656E7465723B0D0A9B
:1001F00009626F726465722D626F74746F6D2D6C1D
:100200006566742D7261646975733A203670783B47
:100210000D0A09626F726465722D746F702D6C65C2
:1002200066742D7261646975733A203670783B0D7F
:100230000A7D0D0A646976236D61696E20646976B2
:10024000236865616465722064697623686561640A
:100250006572436F6E74656E74207B0D0A09666C5F
:100260006F61743A206C6566743B0D0A09686569B4
:100270006768743A20373070783B0D0A09776964F3
:1002800074683A2038313170783B0D0A0962616335
:100290006B67726F756E643A2075726C28272E2E0C
:1002A0002F696D616765732F62616E6E65725F6243
:1002B000672E6769662729207265706561742D78DD
:1002C0002063656E7465723B0D0A09626F72646526
:1002D000722D746F702D72696768742D7261646914
:1002E00075733A203670783B0D0A20202020626F0B
:1002F000726465722D626F74746F6D2D72696768B8
:10030000742D7261646975733A203670783B0D0AFA
:100310007D0D0A646976236D61696E2064697623B8
:1003200068656164657220646976236865616465E7
:1003300072436F6E74656E742064697623686561BC
:10034000646572496E666F207B0D0A09686569678E
:1003500068743A20343570783B0D0A7D0D0A646963
:1003600076236D61696E20646976236865616465D2
:10037000722064697623686561646572436F6E7488
:10038000656E742064697623686561646572496E80
:10039000666F20646976207B0D0A09666C6F617454
:1003A0003A206C6566743B0D0A0977696474683A93
:1003B0002034303570783B0D0A09686569676874C8
:1003C0003A20343570783B0D0A096C696E652D68EA
:1003D00065696768743A20343570783B0D0A0966A0
:1003E0006F6E742D66616D696C793A205461686F27
:1003F0006D613B0D0A7D0D0A646976236D61696E3E
:100400002064697623686561646572206469762377
:10041000686561646572436F6E74656E74206469AB
:100420007623686561646572496E666F20646976DB
:10043000236865616465725469746C65207B0D0A7C
:1004400009636F6C6F723A20236665666566653B6B
:100450000D0A09746578742D616C69676E3A206CB9
:100460006566743B0D0A09666F6E742D73697A6553
:100470003A20323570783B0D0A09666F6E742D771D
:1004800065696768743A20626F6C643B0D0A7D0D84
:100490000A646976236D61696E20646976236865F4
:1004A000616465722064697623686561646572437E
:1004B0006F6E74656E742064697623686561646527
:1004C00072496E666F20646976236865616465723F
:1004D0004C6F676F7574207B0D0A09746578742DF5
:1004E000616C69676E3A2072696768743B0D0A092E
:1004F000666F6E742D73697A653A20313270783B7D
:100500000D0A7D0D0A646976236D61696E20646948
:100510007623686561646572206469762368656125
:10052000646572436F6E74656E74206469762368C7
:100530006561646572496E666F20646976236865DB
:10054000616465724C6F676F7574207370616E20A3
:100550007B0D0A096D617267696E2D726967687437
:100560003A20323070783B0D0A09637572736F72EE
:100570003A20706F696E7465723B0D0A09636F6C87
:100580006F723A20236665666566653B0D0A0966EB
:100590006F6E742D7765696768743A20626F6C645A
:1005A0003B0D0A7D0D0A646976236D61696E2064D6
:1005B000697623686561646572206469762368657D
:1005C00061646572436F6E74656E7420646976232E
:1005D000686561646572546162207B0D0A09686513
:1005E000696768743A20323570783B0D0A09636C8C
:1005F0006561723A20626F74683B0D0A096C696E1E
:10060000652D6865696768743A20323570783B0DEE
:100610000A7D0D0A646976236D61696E20646976CE
:100620002368656164657220646976236865616426
:100630006572436F6E74656E7420646976236865B5
:100640006164657254616220756C207B0D0A0970CB
:10065000616464696E673A203070783B0D0A096DF9
:10066000617267696E3A203070783B0D0A096C69D7
:1006700073742D7374796C652D747970653A206E7E
:100680006F6E653B0D0A7D0D0A646976236D6169A5
:100690006E2064697623686561646572206469769A
:1006A00023686561646572436F6E74656E7420645F
:1006B00069762368656164657254616220756C2097
:1006C0006C69207B0D0A096865696768743A203295
:1006D0003570783B0D0A09666C6F61743A206C6561
:1006E00066743B0D0A09637572736F723A20706FFE
:1006F000696E7465723B0D0A09666F6E742D7765BD
:10070000696768743A20626F6C643B0D0A096D6119
:100710007267696E3A20307078203370783B0D0A2A
:100720007D0D0A646976236D61696E2064697623A4
:1007300068656164657220646976236865616465D3
:1007400072436F6E74656E742064697623686561A8
:1007500064657254616220756C206C6920646976EE
:10076000207B0D0A09666C6F61743A206C656674B3
:100770003B0D0A7D0D0A646976236D61696E206404
:1007800069762368656164657220646976236865AB
:1007900061646572436F6E74656E7420646976235C
:1007A00068656164657254616220756C206C6920B3
:1007B0006469762E74616242746E4C656674207B47
:1007C0000D0A0977696474683A203570783B0D0A20
:1007D000096865696768743A20323570783B0D0A9C
:1007E00009636C6561723A20626F74683B0D0A7D23
:1007F0000D0A646976236D61696E206469762368E9
:1008000065616465722064697623686561646572F8
:10081000436F6E74656E74206469762368656164E5
:10082000657254616220756C206C69206469762E53
:1008300074616242746E43656E746572207B0D0A4A
:10084000096865696768743A20323570783B0D0A2B
:1008500009636F6C6F723A20236665666566653B57
:100860000D0A7D0D0A646976236D61696E206469E5
:1008700076236865616465722064697623686561C2
:10088000646572436F6E74656E7420646976236864
:10089000656164657254616220756C206C692064C6
:1008A00069762E74616242746E5269676874207B47
:1008B0000D0A0977696474683A203570783B0D0A2F
:1008C000096865696768743A20323570783B0D0AAB
:1008D0007D0D0A646976236D61696E2064697623F3
:1008E0006865616465722064697623686561646522
:1008F00072436F6E74656E742064697623686561F7
:1009000064657254616220756C206C692E686F7624
:100910006572206469762E74616242746E4C6566FD
:1009200074207B0D0A0977696474683A203130704D
:10093000783B0D0A096865696768743A203235703A
:10094000783B0D0A09636C6561723A20626F7468C6
:100950003B0D0A092F2A6261636B67726F756E64C3
:100960002D696D6167653A2075726C282E2E2F698E
:100970006D616765732F6D656E75536964652E676C
:100980006966293B2A2F0D0A09637572736F723AE3
:1009900020706F696E7465723B0D0A202020206202
:1009A0006F726465722D746F702D6C6566742D7234
:1009B00061646975733A203570783B0D0A202020F8
:1009C00020626F726465722D626F74746F6D2D6C2E
:1009D0006566742D7261646975733A203570783B71
:1009E0000D0A202020206261636B67726F756E6450
:1009F0002D636F6C6F723A20234646464646463B4F
:100A00000D0A096261636B67726F756E642D7265A2
:100A1000706561743A206E6F2D7265706561743B0C
:100A20000D0A096261636B67726F756E642D706F7A
:100A3000736974696F6E3A20307078203070783B3B
:100A40000D0A7D0D0A646976236D61696E20646903
:100A500076236865616465722064697623686561E0
:100A6000646572436F6E74656E7420646976236882
:100A7000656164657254616220756C206C692E68D2
:100A80006F766572206469762E74616242746E437B
:100A9000656E746572207B0D0A0968656967687404
:100AA0003A20323570783B0D0A09636F6C6F723AE9
:100AB00020236561303032393B0D0A092F2A6261EB
:100AC000636B67726F756E642D696D6167653A203F
:100AD00075726C282E2E2F696D616765732F6D6599
:100AE0006E7542672E676966293B2A2F0D0A0962D7
:100AF00061636B67726F756E642D636F6C6F723AB2
:100B000020234646464646463B0D0A0963757273E6
:100B10006F723A20706F696E7465723B0D0A0966D8
:100B20006F6E742D7765696768743A20626F6C64C4
:100B30003B0D0A096261636B67726F756E642D729B
:100B400065706561743A207265706561742D783BDB
:100B50000D0A7D0D0A646976236D61696E206469F2
:100B600076236865616465722064697623686561CF
:100B7000646572436F6E74656E7420646976236871
:100B8000656164657254616220756C206C692E68C1
:100B90006F766572206469762E74616242746E525B
:100BA00069676874207B0D0A0977696474683A2064
:100BB000313070783B0D0A096865696768743A20BE
:100BC000323570783B0D0A092F2A6261636B6772B8
:100BD0006F756E642D696D6167653A2075726C285A
:100BE0002E2E2F696D616765732F6D656E75536964
:100BF00064652E676966293B2A2F0D0A09637572A1
:100C0000736F723A20706F696E7465723B0D0A20C3
:100C1000202020626F726465722D746F702D72696E
:100C20006768742D7261646975733A203570783B1A
:100C30000D0A20202020626F726465722D626F742D
:100C4000746F6D2D72696768742D72616469757354
:100C50003A203570783B0D0A202020206261636BBA
:100C600067726F756E642D636F6C6F723A202346E6
:100C700046464646463B0D0A096261636B67726FE2
:100C8000756E642D7265706561743A206E6F2D7299
:100C900065706561743B0D0A096261636B67726F11
:100CA000756E642D706F736974696F6E3A202D31A3
:100CB000307078203070783B0D0A7D0D0A646976BB
:100CC000236D61696E20646976236865616465726D
:100CD0002064697623686561646572537061636539
:100CE000207B0D0A096865696768743A2036707858
:100CF0003B0D0A09636C6561723A20626F74683B50
:100D00000D0A096C696E652D6865696768743A201B
:100D10003670783B0D0A096261636B67726F756E9E
:100D2000642D636F6C6F723A2023633963396339C2
:100D30003B0D0A09626F726465722D746F702D6CC1
:100D40006566742D7261646975733A203670783BFC
:100D50000D0A20202020626F726465722D746F70FE
:100D60002D72696768742D7261646975733A2036F3
:100D700070783B0D0A20202020626F726465722D0E
:100D8000626F74746F6D2D6C6566742D7261646929
:100D900075733A203670783B0D0A20202020626F50
:100DA000726465722D626F74746F6D2D72696768FD
:100DB000742D7261646975733A203670783B0D0A40
:100DC0007D0D0A2F2A20656E642068656164657256
:100DD000202A2F0D0A0D0A2F2A2063656E74657272
:100DE000202A2F0D0A646976236D61696E2064697B
:100DF000762363656E746572207B0D0A09686569E8
:100E00006768743A2034373070783B0D0A7D0D0ADC
:100E1000646976236D61696E206469762363656E0B
:100E200074657220646976236E6176207B0D0A09F1
:100E300077696474683A2032323070783B0D0A0961
:100E40006865696768743A2034393570783B0D0AF3
:100E500009666C6F61743A206C6566743B0D0A0913
:100E60006261636B67726F756E642D636F6C6F7216
:100E70003A20234636463646363B0D0A7D0D0A6437
:100E80006976236D61696E206469762363656E748B
:100E9000657220646976236E617620756C207B0D07
:100EA0000A0970616464696E673A203070783B0D9E
:100EB0000A096D617267696E3A203070783B0D0ADD
:100EC000096C6973742D7374796C652D7479706510
:100ED0003A206E6F6E653B0D0A7D0D0A64697623BC
:100EE0006D61696E206469762363656E7465722036
:100EF000646976236E617620756C206C6920646964
:100F000076207B0D0A0977696474683A20323130A3
:100F100070783B0D0A096865696768743A20323554
:100F200070783B0D0A09637572736F723A20706FA7
:100F3000696E7465723B0D0A096C696E652D686592
:100F4000696768743A20323570783B0D0A09666F1C
:100F50006E742D7765696768743A20626F6C643BC4
:100F60000D0A096D617267696E2D626F74746F6D21
:100F70003A203170783B0D0A0970616464696E67CC
:100F80002D6C6566743A20313070783B0D0A7D0D0A
:100F90000A646976236D61696E20646976236365EE
:100FA0006E74657220646976236E61762E6F72614D
:100FB0006E67656D656E740D0A7B0D0A096261636B
:100FC0006B67726F756E642D636F6C6F723A234638
:100FD00046464646463B0D0A7D0D0A646976236DFA
:100FE00061696E206469762363656E74657220643E
:100FF0006976236E61762E6F72616E67656D656EC0
:101000007420756C206C69206469760D0A7B0D0A6A
:1010100009636F6C6F723A234634374130343B0DAD
:101020000A7D0D0A646976236D61696E20646976B4
:101030002363656E74657220646976236E61762E13
:101040006F746865727320756C206C6920646976B2
:101050000D0A7B0D0A09636F6C6F723A2346464690
:101060004646463B0D0A092F2A6261636B67726F21
:10107000756E642D636F6C6F723A2330303931387E
:10108000642F2A236437383433303B2A2F202F2A09
:101090004C616E676E74206261636B67726F756E10
:1010A00064206F6620686F72697A6F6E2062617269
:1010B000206D656E75202A2F200D0A09636F6C6FF5
:1010C000723A20233030303030303B0D0A2020205F
:1010D00020626F726465722D746F702D6C6566741A
:1010E0002D7261646975733A203570783B0D0A2062
:1010F000202020626F726465722D746F702D72698A
:101100006768742D7261646975733A203570783B35
:101110000D0A20202020626F726465722D626F7448
:10112000746F6D2D6C6566742D7261646975733AA8
:10113000203570783B0D0A20202020626F72646594
:10114000722D626F74746F6D2D72696768742D7281
:1011500061646975733A203570783B0D0A20202050
:10116000206261636B67726F756E642D636F6C6F65
:10117000723A20234536453645363B0D0A7D0D0A29
:101180000D0A646976236D61696E20646976236354
:10119000656E74657220646976236E617620756C65
:1011A000206C692E686F76657220646976207B0DED
:1011B0000A09636F6C6F723A2023464646464646DC
:1011C0003B2F2A236534616237323B2A2F0D0A09EF
:1011D000666F6E742D7765696768743A20626F6C0C
:1011E000643B0D0A09637572736F723A20706F6900
:1011F0006E7465723B0D0A092F2A6261636B677218
:101200006F756E642D636F6C6F723A20236437388C
:101210003433303B2F2A233030393138643B2A2F86
:101220000D0A09637572736F723A20706F696E747C
:1012300065723B0D0A20202020626F726465722D5A
:10124000746F702D6C6566742D7261646975733A84
:10125000203570783B0D0A20202020626F72646573
:10126000722D746F702D72696768742D7261646974
:1012700075733A203570783B0D0A20202020626F6C
:10128000726465722D626F74746F6D2D6C65667417
:101290002D7261646975733A203570783B0D0A20B0
:1012A000202020626F726465722D626F74746F6D9E
:1012B0002D72696768742D7261646975733A20359F
:1012C00070783B0D0A202020206261636B67726F8B
:1012D000756E642D636F6C6F723A20234541303018
:1012E00032393B0D0A7D0D0A646976236D61696EA2
:1012F000206469762363656E746572206469762361
:10130000636F6E74656E74207B0D0A09666C6F6185
:10131000743A206C6566743B0D0A097769647468D9
:101320003A2037333570783B0D0A0968656967687C
:10133000743A2034393570783B0D0A096261636B69
:1013400067726F756E642D636F6C6F723A202366DF
:1013500066666666663B202F2A204C616E676E7457
:101360002063656E74657220636F6E74656E7420A1
:101370002A2F0D0A7D0D0A646976236D61696E203E
:101380006469762363656E7465722064697623638D
:101390006F6E74656E742064697623746F704E612D
:1013A00076207B0D0A096865696768743A203235D2
:1013B00070783B0D0A09636F6C6F723A20233030EE
:1013C000303030303B0D0A096C696E652D686569F7
:1013D0006768743A20323570783B0D0A0970616491
:1013E00064696E672D6C6566743A20313070783BA5
:1013F0000D0A09626F726465722D746F702D6C65D1
:1014000066742D7261646975733A203570783B0D8E
:101410000A20202020626F726465722D746F702D17
:1014200072696768742D7261646975733A203570EA
:10143000783B0D0A20202020626F726465722D6255
:101440006F74746F6D2D6C6566742D72616469754F
:10145000733A203570783B0D0A20202020626F728D
:101460006465722D626F74746F6D2D726967687434
:101470002D7261646975733A203570783B0D0A09E5
:101480006261636B67726F756E642D636F6C6F72F0
:101490003A20236666666666663B202F2A204C61EA
:1014A0006E676E74206E617665206D656E75202A9C
:1014B0002F0D0A7D0D0A646976236D61696E2064C3
:1014C00069762363656E7465722064697623636F41
:1014D0006E74656E7420646976236672616D6557FB
:1014E000617270436F6E74656E74207B0D0A0968BB
:1014F00065696768743A2034373070783B0D0A7D2F
:101500000D0A2F2A20656E642063656E7465722053
:101510002A2F0D0A0D0A2F2A20666F6F746572201C
:101520002A2F0D0A646976236D61696E20646976DD
:1015300023666F6F746572207B0D0A09636C6561A9
:10154000723A20626F74683B0D0A096865696768C2
:10155000743A20323570783B0D0A09636F6C6F72F4
:101560003A20236666666666663B0D0A09746578EE
:10157000742D616C69676E3A2063656E7465723BA9
:101580000D0A09626F726465722D746F702D6C653F
:1015900066742D7261646975733A203570783B0DFD
:1015A0000A20202020626F726465722D746F702D86
:1015B00072696768742D7261646975733A20357059
:1015C000783B0D0A20202020626F726465722D62C4
:1015D0006F74746F6D2D6C6566742D7261646975BE
:1015E000733A203570783B0D0A20202020626F72FC
:1015F0006465722D626F74746F6D2D7269676874A3
:101600002D7261646975733A203570783B0D0A0953
:101610006261636B67726F756E642D636F6C6F725E
:101620003A20236561303032393B202F2A4C616EDD
:10163000676E7420666F6F7465722A2F0D0A7D0DB8
:101640000A646976236D61696E207461626C65203D
:101650007B0D0A096865696768743A203130302566
:101660003B0D0A096D617267696E3A20307078200F
:101670006175746F3B0D0A7D0D0A646976236D6197
:10168000696E2064697623666F6F746572202366C5
:101690006F6F7465724C6F676F207B0D0A09686508
:1016A000696768743A20323570783B0D0A097769AA
:1016B0006474683A20343070783B0D0A2020202072
:1016C0006261636B67726F756E643A2075726C2825
:1016D0002E2E2F696D616765732F68775F6C6F675A
:1016E0006F2E67696629206E6F2D72657065617453
:1016F0002063656E7465723B0D0A7D0D0A64697620
:10170000236D61696E2064697623666F6F746572FC
:101710002023666F6F74657254657874207B0D0AA0
:1017200009636F6C6F723A20236666666666663B75
:101730000D0A09666F6E742D73697A653A2031322D
:1017400070783B0D0A7D0D0A2F2A20656E64206695
:101750006F6F746572202A2F0D0A0D0A2F2A2066DA
:1017600072657368202A2F0D0A646976236D61699A
:101770006E20646976236672657368207B0D0A09A2
:10178000646973706C61793A206E6F6E653B0D0A07
:101790007D0D0A2F2A20656E6420667265736820AD
:1017A0002A2F0D0A2F2A205468697320536F7572EF
:1017B000636520436F646520466F726D20697320F6
:1017C0007375626A65637420746F20746865207431
:1017D00065726D73206F6620746865204D6F7A693D
:1017E0006C6C61205075626C69630D0A202A204C74
:1017F0006963656E73652C20762E20322E302E2084
:101800004966206120636F7079206F662074686577
:10181000204D504C20776173206E6F742064697383
:10182000747269627574656420776974682074687D
:1018300069730D0A202A2066696C652C20596F7522
:101840002063616E206F627461696E206F6E652027
:10185000617420687474703A2F2F6D6F7A696C6CA4
:10186000612E6F72672F4D504C2F322E302F2E204D
:101870002A2F0D0A0D0A40696D706F7274207572FF
:101880006C28226368726F6D653A2F2F62726F77D2
:101890007365722F736B696E2F696E2D636F6E7433
:1018A000656E742F636F6D6D6F6E2E637373222977
:1018B0003B0D0A0D0A626F6479207B0D0A202064BB
:1018C0006973706C61793A20666C65783B0D0A200B
:1018D00020626F782D73697A696E673A207061644F
:1018E00064696E672D626F783B0D0A20206D696E0A
:1018F0002D6865696768743A2031303076683B0D31
:101900000A202070616464696E673A2030203438A0
:1019100070783B0D0A2020616C69676E2D697465D3
:101920006D733A2063656E7465723B0D0A20206A00
:101930007573746966792D636F6E74656E743A2081
:1019400063656E7465723B0D0A7D0D0A0D0A756C38
:101950002C206F6C207B0D0A20206D617267696EF0
:101960003A20303B0D0A202070616464696E673A4A
:1019700020303B0D0A20202D6D6F7A2D6D6172672E
:10198000696E2D73746172743A2031656D3B0D0A76
:101990007D0D0A0D0A756C203E206C692C206F6C41
:1019A000203E206C69207B0D0A20206D61726769E2
:1019B0006E2D626F74746F6D3A202E35656D3B0D20
:1019C0000A7D0D0A0D0A756C207B0D0A20206C69BA
:1019D00073742D7374796C653A20646973633B0D7D
:1019E0000A7D0D0A0D0A236572726F725061676578
:1019F000436F6E7461696E6572207B0D0A20206DE5
:101A0000696E2D77696474683A2033323070783BA0
:101A10000D0A20206D61782D77696474683A20354D
:101A2000313270783B0D0A7D0D0A0D0A2365727202
:101A30006F725469746C6554657874207B0D0A204C
:101A4000206261636B67726F756E643A2075726CA9
:101A50002822696E666F2E7376672229206C656670
:101A6000742030206E6F2D7265706561743B0D0AB5
:101A700020206261636B67726F756E642D73697A83
:101A8000653A20312E32656D3B0D0A20202D6D6F99
:101A90007A2D6D617267696E2D73746172743A206C
:101AA0002D32656D3B0D0A20202D6D6F7A2D7061F2
:101AB0006464696E672D73746172743A2032656D67
:101AC0003B0D0A7D0D0A0D0A236572726F7254690F
:101AD000746C65546578743A2D6D6F7A2D646972F3
:101AE0002872746C29207B0D0A20206261636B6769
:101AF000726F756E642D706F736974696F6E3A20C2
:101B0000726967687420303B0D0A7D0D0A0D0A2347
:101B10006572726F72547279416761696E207B0DD4
:101B20000A20206D617267696E2D746F703A2031E2
:101B30002E32656D3B0D0A7D0D0A0D0A236572720A
:101B40006F72436F6E7461696E6572207B0D0A203F
:101B500020646973706C61793A206E6F6E653B0D1D
:101B60000A7D0D0A0D0A406D6564696120286D616A
:101B7000782D77696474683A203637357078292073
:101B80007B0D0A2020236572726F725469746C6534
:101B9000207B0D0A2020202070616464696E672D0F
:101BA000746F703A20303B0D0A2020202062616360
:101BB0006B67726F756E642D696D6167653A206E33
:101BC0006F6E653B0D0A202020202D6D6F7A2D70E1
:101BD000616464696E672D73746172743A20303B7E
:101BE0000D0A202020202D6D6F7A2D6D617267699E
:101BF0006E2D73746172743A20303B0D0A20207D83
:101C00000D0A7D0D0A0D0A0D0A2F2A20636F6D6DD6
:101C10006F6E2E637373206F76657272696465737D
:101C2000202A2F0D0A0D0A627574746F6E207B0DC9
:101C30000A2020666F6E742D73697A653A203165CB
:101C40006D3B0D0A20206D696E2D77696474683ACA
:101C50002031353070783B0D0A7D0D0A0D0A2F2A90
:101C6000205072657373696E6720746865207265B1
:101C700074727920627574746F6E2077696C6C2051
:101C800063617573652074686520637572736F7224
:101C900020746F20666C69636B65722066726F6D6D
:101CA000206120706F696E74657220746F0D0A2058
:101CB0002A206E6F742D616C6C6F7765642E204FD7
